###############################################################################
#
# IAR ELF Linker V8.40.1.212/W32 for ARM                  12/Oct/2020  18:46:35
# Copyright 2007-2019 IAR Systems AB.
#
#    Output file  =
#        E:\RACEnergy\BitBucket_Codes\Heimdal\surya_merugu-heimdal-d1214973f563\Toolchain\EWARM\Bat_Pack_Gen1\Exe\Bat_Pack_Gen1.out
#    Map file     =
#        E:\RACEnergy\BitBucket_Codes\Heimdal\surya_merugu-heimdal-d1214973f563\Toolchain\EWARM\Bat_Pack_Gen1\List\Bat_Pack_Gen1.map
#    Command line =
#        -f C:\Users\SURYAM~1\AppData\Local\Temp\EWB379.tmp
#        (E:\RACEnergy\BitBucket_Codes\Heimdal\surya_merugu-heimdal-d1214973f563\Toolchain\EWARM\Bat_Pack_Gen1\Obj\eeprom_api.o
#        E:\RACEnergy\BitBucket_Codes\Heimdal\surya_merugu-heimdal-d1214973f563\Toolchain\EWARM\Bat_Pack_Gen1\Obj\main.o
#        E:\RACEnergy\BitBucket_Codes\Heimdal\surya_merugu-heimdal-d1214973f563\Toolchain\EWARM\Bat_Pack_Gen1\Obj\re_adc_init.o
#        E:\RACEnergy\BitBucket_Codes\Heimdal\surya_merugu-heimdal-d1214973f563\Toolchain\EWARM\Bat_Pack_Gen1\Obj\re_adc_int_callback.o
#        E:\RACEnergy\BitBucket_Codes\Heimdal\surya_merugu-heimdal-d1214973f563\Toolchain\EWARM\Bat_Pack_Gen1\Obj\re_app_bms.o
#        E:\RACEnergy\BitBucket_Codes\Heimdal\surya_merugu-heimdal-d1214973f563\Toolchain\EWARM\Bat_Pack_Gen1\Obj\re_app_can.o
#        E:\RACEnergy\BitBucket_Codes\Heimdal\surya_merugu-heimdal-d1214973f563\Toolchain\EWARM\Bat_Pack_Gen1\Obj\re_app_eeprom.o
#        E:\RACEnergy\BitBucket_Codes\Heimdal\surya_merugu-heimdal-d1214973f563\Toolchain\EWARM\Bat_Pack_Gen1\Obj\re_app_latch.o
#        E:\RACEnergy\BitBucket_Codes\Heimdal\surya_merugu-heimdal-d1214973f563\Toolchain\EWARM\Bat_Pack_Gen1\Obj\re_app_location.o
#        E:\RACEnergy\BitBucket_Codes\Heimdal\surya_merugu-heimdal-d1214973f563\Toolchain\EWARM\Bat_Pack_Gen1\Obj\re_app_rcps.o
#        E:\RACEnergy\BitBucket_Codes\Heimdal\surya_merugu-heimdal-d1214973f563\Toolchain\EWARM\Bat_Pack_Gen1\Obj\re_app_soc.o
#        E:\RACEnergy\BitBucket_Codes\Heimdal\surya_merugu-heimdal-d1214973f563\Toolchain\EWARM\Bat_Pack_Gen1\Obj\re_app_temperature.o
#        E:\RACEnergy\BitBucket_Codes\Heimdal\surya_merugu-heimdal-d1214973f563\Toolchain\EWARM\Bat_Pack_Gen1\Obj\re_app_timers.o
#        E:\RACEnergy\BitBucket_Codes\Heimdal\surya_merugu-heimdal-d1214973f563\Toolchain\EWARM\Bat_Pack_Gen1\Obj\re_can_init.o
#        E:\RACEnergy\BitBucket_Codes\Heimdal\surya_merugu-heimdal-d1214973f563\Toolchain\EWARM\Bat_Pack_Gen1\Obj\re_can_int_callback.o
#        E:\RACEnergy\BitBucket_Codes\Heimdal\surya_merugu-heimdal-d1214973f563\Toolchain\EWARM\Bat_Pack_Gen1\Obj\re_dma_init.o
#        E:\RACEnergy\BitBucket_Codes\Heimdal\surya_merugu-heimdal-d1214973f563\Toolchain\EWARM\Bat_Pack_Gen1\Obj\re_i2c_init.o
#        E:\RACEnergy\BitBucket_Codes\Heimdal\surya_merugu-heimdal-d1214973f563\Toolchain\EWARM\Bat_Pack_Gen1\Obj\re_iwdg_init.o
#        E:\RACEnergy\BitBucket_Codes\Heimdal\surya_merugu-heimdal-d1214973f563\Toolchain\EWARM\Bat_Pack_Gen1\Obj\re_latch_init.o
#        E:\RACEnergy\BitBucket_Codes\Heimdal\surya_merugu-heimdal-d1214973f563\Toolchain\EWARM\Bat_Pack_Gen1\Obj\re_location_init.o
#        E:\RACEnergy\BitBucket_Codes\Heimdal\surya_merugu-heimdal-d1214973f563\Toolchain\EWARM\Bat_Pack_Gen1\Obj\re_rcps_init.o
#        E:\RACEnergy\BitBucket_Codes\Heimdal\surya_merugu-heimdal-d1214973f563\Toolchain\EWARM\Bat_Pack_Gen1\Obj\re_std_def.o
#        E:\RACEnergy\BitBucket_Codes\Heimdal\surya_merugu-heimdal-d1214973f563\Toolchain\EWARM\Bat_Pack_Gen1\Obj\re_sys_clk_config.o
#        E:\RACEnergy\BitBucket_Codes\Heimdal\surya_merugu-heimdal-d1214973f563\Toolchain\EWARM\Bat_Pack_Gen1\Obj\re_timer_init.o
#        E:\RACEnergy\BitBucket_Codes\Heimdal\surya_merugu-heimdal-d1214973f563\Toolchain\EWARM\Bat_Pack_Gen1\Obj\re_timer_int_callback.o
#        E:\RACEnergy\BitBucket_Codes\Heimdal\surya_merugu-heimdal-d1214973f563\Toolchain\EWARM\Bat_Pack_Gen1\Obj\startup_stm32f407xx.o
#        E:\RACEnergy\BitBucket_Codes\Heimdal\surya_merugu-heimdal-d1214973f563\Toolchain\EWARM\Bat_Pack_Gen1\Obj\stm32f4xx_hal.o
#        E:\RACEnergy\BitBucket_Codes\Heimdal\surya_merugu-heimdal-d1214973f563\Toolchain\EWARM\Bat_Pack_Gen1\Obj\stm32f4xx_hal_adc.o
#        E:\RACEnergy\BitBucket_Codes\Heimdal\surya_merugu-heimdal-d1214973f563\Toolchain\EWARM\Bat_Pack_Gen1\Obj\stm32f4xx_hal_adc_ex.o
#        E:\RACEnergy\BitBucket_Codes\Heimdal\surya_merugu-heimdal-d1214973f563\Toolchain\EWARM\Bat_Pack_Gen1\Obj\stm32f4xx_hal_can.o
#        E:\RACEnergy\BitBucket_Codes\Heimdal\surya_merugu-heimdal-d1214973f563\Toolchain\EWARM\Bat_Pack_Gen1\Obj\stm32f4xx_hal_cec.o
#        E:\RACEnergy\BitBucket_Codes\Heimdal\surya_merugu-heimdal-d1214973f563\Toolchain\EWARM\Bat_Pack_Gen1\Obj\stm32f4xx_hal_cortex.o
#        E:\RACEnergy\BitBucket_Codes\Heimdal\surya_merugu-heimdal-d1214973f563\Toolchain\EWARM\Bat_Pack_Gen1\Obj\stm32f4xx_hal_crc.o
#        E:\RACEnergy\BitBucket_Codes\Heimdal\surya_merugu-heimdal-d1214973f563\Toolchain\EWARM\Bat_Pack_Gen1\Obj\stm32f4xx_hal_cryp.o
#        E:\RACEnergy\BitBucket_Codes\Heimdal\surya_merugu-heimdal-d1214973f563\Toolchain\EWARM\Bat_Pack_Gen1\Obj\stm32f4xx_hal_cryp_ex.o
#        E:\RACEnergy\BitBucket_Codes\Heimdal\surya_merugu-heimdal-d1214973f563\Toolchain\EWARM\Bat_Pack_Gen1\Obj\stm32f4xx_hal_dac.o
#        E:\RACEnergy\BitBucket_Codes\Heimdal\surya_merugu-heimdal-d1214973f563\Toolchain\EWARM\Bat_Pack_Gen1\Obj\stm32f4xx_hal_dac_ex.o
#        E:\RACEnergy\BitBucket_Codes\Heimdal\surya_merugu-heimdal-d1214973f563\Toolchain\EWARM\Bat_Pack_Gen1\Obj\stm32f4xx_hal_dcmi.o
#        E:\RACEnergy\BitBucket_Codes\Heimdal\surya_merugu-heimdal-d1214973f563\Toolchain\EWARM\Bat_Pack_Gen1\Obj\stm32f4xx_hal_dcmi_ex.o
#        E:\RACEnergy\BitBucket_Codes\Heimdal\surya_merugu-heimdal-d1214973f563\Toolchain\EWARM\Bat_Pack_Gen1\Obj\stm32f4xx_hal_dfsdm.o
#        E:\RACEnergy\BitBucket_Codes\Heimdal\surya_merugu-heimdal-d1214973f563\Toolchain\EWARM\Bat_Pack_Gen1\Obj\stm32f4xx_hal_dma.o
#        E:\RACEnergy\BitBucket_Codes\Heimdal\surya_merugu-heimdal-d1214973f563\Toolchain\EWARM\Bat_Pack_Gen1\Obj\stm32f4xx_hal_dma2d.o
#        E:\RACEnergy\BitBucket_Codes\Heimdal\surya_merugu-heimdal-d1214973f563\Toolchain\EWARM\Bat_Pack_Gen1\Obj\stm32f4xx_hal_dma_ex.o
#        E:\RACEnergy\BitBucket_Codes\Heimdal\surya_merugu-heimdal-d1214973f563\Toolchain\EWARM\Bat_Pack_Gen1\Obj\stm32f4xx_hal_dsi.o
#        E:\RACEnergy\BitBucket_Codes\Heimdal\surya_merugu-heimdal-d1214973f563\Toolchain\EWARM\Bat_Pack_Gen1\Obj\stm32f4xx_hal_eth.o
#        E:\RACEnergy\BitBucket_Codes\Heimdal\surya_merugu-heimdal-d1214973f563\Toolchain\EWARM\Bat_Pack_Gen1\Obj\stm32f4xx_hal_exti.o
#        E:\RACEnergy\BitBucket_Codes\Heimdal\surya_merugu-heimdal-d1214973f563\Toolchain\EWARM\Bat_Pack_Gen1\Obj\stm32f4xx_hal_flash.o
#        E:\RACEnergy\BitBucket_Codes\Heimdal\surya_merugu-heimdal-d1214973f563\Toolchain\EWARM\Bat_Pack_Gen1\Obj\stm32f4xx_hal_flash_ex.o
#        E:\RACEnergy\BitBucket_Codes\Heimdal\surya_merugu-heimdal-d1214973f563\Toolchain\EWARM\Bat_Pack_Gen1\Obj\stm32f4xx_hal_flash_ramfunc.o
#        E:\RACEnergy\BitBucket_Codes\Heimdal\surya_merugu-heimdal-d1214973f563\Toolchain\EWARM\Bat_Pack_Gen1\Obj\stm32f4xx_hal_fmpi2c.o
#        E:\RACEnergy\BitBucket_Codes\Heimdal\surya_merugu-heimdal-d1214973f563\Toolchain\EWARM\Bat_Pack_Gen1\Obj\stm32f4xx_hal_fmpi2c_ex.o
#        E:\RACEnergy\BitBucket_Codes\Heimdal\surya_merugu-heimdal-d1214973f563\Toolchain\EWARM\Bat_Pack_Gen1\Obj\stm32f4xx_hal_gpio.o
#        E:\RACEnergy\BitBucket_Codes\Heimdal\surya_merugu-heimdal-d1214973f563\Toolchain\EWARM\Bat_Pack_Gen1\Obj\stm32f4xx_hal_hash.o
#        E:\RACEnergy\BitBucket_Codes\Heimdal\surya_merugu-heimdal-d1214973f563\Toolchain\EWARM\Bat_Pack_Gen1\Obj\stm32f4xx_hal_hash_ex.o
#        E:\RACEnergy\BitBucket_Codes\Heimdal\surya_merugu-heimdal-d1214973f563\Toolchain\EWARM\Bat_Pack_Gen1\Obj\stm32f4xx_hal_hcd.o
#        E:\RACEnergy\BitBucket_Codes\Heimdal\surya_merugu-heimdal-d1214973f563\Toolchain\EWARM\Bat_Pack_Gen1\Obj\stm32f4xx_hal_i2c.o
#        E:\RACEnergy\BitBucket_Codes\Heimdal\surya_merugu-heimdal-d1214973f563\Toolchain\EWARM\Bat_Pack_Gen1\Obj\stm32f4xx_hal_i2c_ex.o
#        E:\RACEnergy\BitBucket_Codes\Heimdal\surya_merugu-heimdal-d1214973f563\Toolchain\EWARM\Bat_Pack_Gen1\Obj\stm32f4xx_hal_i2s.o
#        E:\RACEnergy\BitBucket_Codes\Heimdal\surya_merugu-heimdal-d1214973f563\Toolchain\EWARM\Bat_Pack_Gen1\Obj\stm32f4xx_hal_i2s_ex.o
#        E:\RACEnergy\BitBucket_Codes\Heimdal\surya_merugu-heimdal-d1214973f563\Toolchain\EWARM\Bat_Pack_Gen1\Obj\stm32f4xx_hal_irda.o
#        E:\RACEnergy\BitBucket_Codes\Heimdal\surya_merugu-heimdal-d1214973f563\Toolchain\EWARM\Bat_Pack_Gen1\Obj\stm32f4xx_hal_iwdg.o
#        E:\RACEnergy\BitBucket_Codes\Heimdal\surya_merugu-heimdal-d1214973f563\Toolchain\EWARM\Bat_Pack_Gen1\Obj\stm32f4xx_hal_lptim.o
#        E:\RACEnergy\BitBucket_Codes\Heimdal\surya_merugu-heimdal-d1214973f563\Toolchain\EWARM\Bat_Pack_Gen1\Obj\stm32f4xx_hal_ltdc.o
#        E:\RACEnergy\BitBucket_Codes\Heimdal\surya_merugu-heimdal-d1214973f563\Toolchain\EWARM\Bat_Pack_Gen1\Obj\stm32f4xx_hal_ltdc_ex.o
#        E:\RACEnergy\BitBucket_Codes\Heimdal\surya_merugu-heimdal-d1214973f563\Toolchain\EWARM\Bat_Pack_Gen1\Obj\stm32f4xx_hal_mmc.o
#        E:\RACEnergy\BitBucket_Codes\Heimdal\surya_merugu-heimdal-d1214973f563\Toolchain\EWARM\Bat_Pack_Gen1\Obj\stm32f4xx_hal_msp_template.o
#        E:\RACEnergy\BitBucket_Codes\Heimdal\surya_merugu-heimdal-d1214973f563\Toolchain\EWARM\Bat_Pack_Gen1\Obj\stm32f4xx_hal_nand.o
#        E:\RACEnergy\BitBucket_Codes\Heimdal\surya_merugu-heimdal-d1214973f563\Toolchain\EWARM\Bat_Pack_Gen1\Obj\stm32f4xx_hal_nor.o
#        E:\RACEnergy\BitBucket_Codes\Heimdal\surya_merugu-heimdal-d1214973f563\Toolchain\EWARM\Bat_Pack_Gen1\Obj\stm32f4xx_hal_pccard.o
#        E:\RACEnergy\BitBucket_Codes\Heimdal\surya_merugu-heimdal-d1214973f563\Toolchain\EWARM\Bat_Pack_Gen1\Obj\stm32f4xx_hal_pcd.o
#        E:\RACEnergy\BitBucket_Codes\Heimdal\surya_merugu-heimdal-d1214973f563\Toolchain\EWARM\Bat_Pack_Gen1\Obj\stm32f4xx_hal_pcd_ex.o
#        E:\RACEnergy\BitBucket_Codes\Heimdal\surya_merugu-heimdal-d1214973f563\Toolchain\EWARM\Bat_Pack_Gen1\Obj\stm32f4xx_hal_pwr.o
#        E:\RACEnergy\BitBucket_Codes\Heimdal\surya_merugu-heimdal-d1214973f563\Toolchain\EWARM\Bat_Pack_Gen1\Obj\stm32f4xx_hal_pwr_ex.o
#        E:\RACEnergy\BitBucket_Codes\Heimdal\surya_merugu-heimdal-d1214973f563\Toolchain\EWARM\Bat_Pack_Gen1\Obj\stm32f4xx_hal_qspi.o
#        E:\RACEnergy\BitBucket_Codes\Heimdal\surya_merugu-heimdal-d1214973f563\Toolchain\EWARM\Bat_Pack_Gen1\Obj\stm32f4xx_hal_rcc.o
#        E:\RACEnergy\BitBucket_Codes\Heimdal\surya_merugu-heimdal-d1214973f563\Toolchain\EWARM\Bat_Pack_Gen1\Obj\stm32f4xx_hal_rcc_ex.o
#        E:\RACEnergy\BitBucket_Codes\Heimdal\surya_merugu-heimdal-d1214973f563\Toolchain\EWARM\Bat_Pack_Gen1\Obj\stm32f4xx_hal_rng.o
#        E:\RACEnergy\BitBucket_Codes\Heimdal\surya_merugu-heimdal-d1214973f563\Toolchain\EWARM\Bat_Pack_Gen1\Obj\stm32f4xx_hal_rtc.o
#        E:\RACEnergy\BitBucket_Codes\Heimdal\surya_merugu-heimdal-d1214973f563\Toolchain\EWARM\Bat_Pack_Gen1\Obj\stm32f4xx_hal_rtc_ex.o
#        E:\RACEnergy\BitBucket_Codes\Heimdal\surya_merugu-heimdal-d1214973f563\Toolchain\EWARM\Bat_Pack_Gen1\Obj\stm32f4xx_hal_sai.o
#        E:\RACEnergy\BitBucket_Codes\Heimdal\surya_merugu-heimdal-d1214973f563\Toolchain\EWARM\Bat_Pack_Gen1\Obj\stm32f4xx_hal_sai_ex.o
#        E:\RACEnergy\BitBucket_Codes\Heimdal\surya_merugu-heimdal-d1214973f563\Toolchain\EWARM\Bat_Pack_Gen1\Obj\stm32f4xx_hal_sd.o
#        E:\RACEnergy\BitBucket_Codes\Heimdal\surya_merugu-heimdal-d1214973f563\Toolchain\EWARM\Bat_Pack_Gen1\Obj\stm32f4xx_hal_sdram.o
#        E:\RACEnergy\BitBucket_Codes\Heimdal\surya_merugu-heimdal-d1214973f563\Toolchain\EWARM\Bat_Pack_Gen1\Obj\stm32f4xx_hal_smartcard.o
#        E:\RACEnergy\BitBucket_Codes\Heimdal\surya_merugu-heimdal-d1214973f563\Toolchain\EWARM\Bat_Pack_Gen1\Obj\stm32f4xx_hal_smbus.o
#        E:\RACEnergy\BitBucket_Codes\Heimdal\surya_merugu-heimdal-d1214973f563\Toolchain\EWARM\Bat_Pack_Gen1\Obj\stm32f4xx_hal_spdifrx.o
#        E:\RACEnergy\BitBucket_Codes\Heimdal\surya_merugu-heimdal-d1214973f563\Toolchain\EWARM\Bat_Pack_Gen1\Obj\stm32f4xx_hal_spi.o
#        E:\RACEnergy\BitBucket_Codes\Heimdal\surya_merugu-heimdal-d1214973f563\Toolchain\EWARM\Bat_Pack_Gen1\Obj\stm32f4xx_hal_sram.o
#        E:\RACEnergy\BitBucket_Codes\Heimdal\surya_merugu-heimdal-d1214973f563\Toolchain\EWARM\Bat_Pack_Gen1\Obj\stm32f4xx_hal_tim.o
#        E:\RACEnergy\BitBucket_Codes\Heimdal\surya_merugu-heimdal-d1214973f563\Toolchain\EWARM\Bat_Pack_Gen1\Obj\stm32f4xx_hal_tim_ex.o
#        E:\RACEnergy\BitBucket_Codes\Heimdal\surya_merugu-heimdal-d1214973f563\Toolchain\EWARM\Bat_Pack_Gen1\Obj\stm32f4xx_hal_uart.o
#        E:\RACEnergy\BitBucket_Codes\Heimdal\surya_merugu-heimdal-d1214973f563\Toolchain\EWARM\Bat_Pack_Gen1\Obj\stm32f4xx_hal_usart.o
#        E:\RACEnergy\BitBucket_Codes\Heimdal\surya_merugu-heimdal-d1214973f563\Toolchain\EWARM\Bat_Pack_Gen1\Obj\stm32f4xx_hal_wwdg.o
#        E:\RACEnergy\BitBucket_Codes\Heimdal\surya_merugu-heimdal-d1214973f563\Toolchain\EWARM\Bat_Pack_Gen1\Obj\stm32f4xx_it.o
#        E:\RACEnergy\BitBucket_Codes\Heimdal\surya_merugu-heimdal-d1214973f563\Toolchain\EWARM\Bat_Pack_Gen1\Obj\stm32f4xx_ll_adc.o
#        E:\RACEnergy\BitBucket_Codes\Heimdal\surya_merugu-heimdal-d1214973f563\Toolchain\EWARM\Bat_Pack_Gen1\Obj\stm32f4xx_ll_crc.o
#        E:\RACEnergy\BitBucket_Codes\Heimdal\surya_merugu-heimdal-d1214973f563\Toolchain\EWARM\Bat_Pack_Gen1\Obj\stm32f4xx_ll_dac.o
#        E:\RACEnergy\BitBucket_Codes\Heimdal\surya_merugu-heimdal-d1214973f563\Toolchain\EWARM\Bat_Pack_Gen1\Obj\stm32f4xx_ll_dma.o
#        E:\RACEnergy\BitBucket_Codes\Heimdal\surya_merugu-heimdal-d1214973f563\Toolchain\EWARM\Bat_Pack_Gen1\Obj\stm32f4xx_ll_dma2d.o
#        E:\RACEnergy\BitBucket_Codes\Heimdal\surya_merugu-heimdal-d1214973f563\Toolchain\EWARM\Bat_Pack_Gen1\Obj\stm32f4xx_ll_exti.o
#        E:\RACEnergy\BitBucket_Codes\Heimdal\surya_merugu-heimdal-d1214973f563\Toolchain\EWARM\Bat_Pack_Gen1\Obj\stm32f4xx_ll_fmc.o
#        E:\RACEnergy\BitBucket_Codes\Heimdal\surya_merugu-heimdal-d1214973f563\Toolchain\EWARM\Bat_Pack_Gen1\Obj\stm32f4xx_ll_fsmc.o
#        E:\RACEnergy\BitBucket_Codes\Heimdal\surya_merugu-heimdal-d1214973f563\Toolchain\EWARM\Bat_Pack_Gen1\Obj\stm32f4xx_ll_gpio.o
#        E:\RACEnergy\BitBucket_Codes\Heimdal\surya_merugu-heimdal-d1214973f563\Toolchain\EWARM\Bat_Pack_Gen1\Obj\stm32f4xx_ll_i2c.o
#        E:\RACEnergy\BitBucket_Codes\Heimdal\surya_merugu-heimdal-d1214973f563\Toolchain\EWARM\Bat_Pack_Gen1\Obj\stm32f4xx_ll_lptim.o
#        E:\RACEnergy\BitBucket_Codes\Heimdal\surya_merugu-heimdal-d1214973f563\Toolchain\EWARM\Bat_Pack_Gen1\Obj\stm32f4xx_ll_pwr.o
#        E:\RACEnergy\BitBucket_Codes\Heimdal\surya_merugu-heimdal-d1214973f563\Toolchain\EWARM\Bat_Pack_Gen1\Obj\stm32f4xx_ll_rcc.o
#        E:\RACEnergy\BitBucket_Codes\Heimdal\surya_merugu-heimdal-d1214973f563\Toolchain\EWARM\Bat_Pack_Gen1\Obj\stm32f4xx_ll_rng.o
#        E:\RACEnergy\BitBucket_Codes\Heimdal\surya_merugu-heimdal-d1214973f563\Toolchain\EWARM\Bat_Pack_Gen1\Obj\stm32f4xx_ll_rtc.o
#        E:\RACEnergy\BitBucket_Codes\Heimdal\surya_merugu-heimdal-d1214973f563\Toolchain\EWARM\Bat_Pack_Gen1\Obj\stm32f4xx_ll_sdmmc.o
#        E:\RACEnergy\BitBucket_Codes\Heimdal\surya_merugu-heimdal-d1214973f563\Toolchain\EWARM\Bat_Pack_Gen1\Obj\stm32f4xx_ll_spi.o
#        E:\RACEnergy\BitBucket_Codes\Heimdal\surya_merugu-heimdal-d1214973f563\Toolchain\EWARM\Bat_Pack_Gen1\Obj\stm32f4xx_ll_tim.o
#        E:\RACEnergy\BitBucket_Codes\Heimdal\surya_merugu-heimdal-d1214973f563\Toolchain\EWARM\Bat_Pack_Gen1\Obj\stm32f4xx_ll_usart.o
#        E:\RACEnergy\BitBucket_Codes\Heimdal\surya_merugu-heimdal-d1214973f563\Toolchain\EWARM\Bat_Pack_Gen1\Obj\stm32f4xx_ll_usb.o
#        E:\RACEnergy\BitBucket_Codes\Heimdal\surya_merugu-heimdal-d1214973f563\Toolchain\EWARM\Bat_Pack_Gen1\Obj\stm32f4xx_ll_utils.o
#        E:\RACEnergy\BitBucket_Codes\Heimdal\surya_merugu-heimdal-d1214973f563\Toolchain\EWARM\Bat_Pack_Gen1\Obj\system_stm32f4xx.o
#        --redirect _Printf=_PrintfFull --redirect _Scanf=_ScanfFull
#        --no_out_extension -o
#        E:\RACEnergy\BitBucket_Codes\Heimdal\surya_merugu-heimdal-d1214973f563\Toolchain\EWARM\Bat_Pack_Gen1\Exe\Bat_Pack_Gen1.out
#        --map
#        E:\RACEnergy\BitBucket_Codes\Heimdal\surya_merugu-heimdal-d1214973f563\Toolchain\EWARM\Bat_Pack_Gen1\List\Bat_Pack_Gen1.map
#        --config
#        E:\RACEnergy\BitBucket_Codes\Heimdal\surya_merugu-heimdal-d1214973f563\Toolchain\EWARM/stm32f407xx_flash.icf
#        --semihosting --entry __iar_program_start --vfe --text_out locale)
#
###############################################################################

*******************************************************************************
*** RUNTIME MODEL ATTRIBUTES
***

CppFlavor       = *
__Heap_Handler  = DLMalloc
__SystemLibrary = DLib
__dlib_version  = 6


*******************************************************************************
*** HEAP SELECTION
***

The advanced heap was selected because the application calls memory
allocation functions outside of system library functions, and there
are calls to deallocation functions in the application.


*******************************************************************************
*** PLACEMENT SUMMARY
***

"A0":  place at address 0x800'0000 { ro section .intvec };
"P1":  place in [from 0x800'0000 to 0x80f'ffff] { ro };
define block CSTACK with size = 1K, alignment = 8 { };
define block HEAP with size = 512, alignment = 8 { };
"P2":  place in [from 0x2000'0000 to 0x2001'ffff] {
          rw, block CSTACK, block HEAP };
initialize by copy { rw };

  Section            Kind         Address    Size  Object
  -------            ----         -------    ----  ------
"A0":                                       0x188
  .intvec            ro code   0x800'0000   0x188  startup_stm32f407xx.o [1]
                             - 0x800'0188   0x188

"P1":                                      0x7cf8
  .text              ro code   0x800'0188  0x1d7a  stm32f4xx_hal_i2c.o [1]
  .text              ro code   0x800'1f02    0x3a  zero_init3.o [4]
  .text              ro code   0x800'1f3c   0x214  stm32f4xx_hal_rcc.o [1]
  .text              ro code   0x800'2150     0xc  stm32f4xx_hal.o [1]
  .text              ro code   0x800'215c     0x2  stm32f4xx_hal_i2c.o [1]
  .text              ro code   0x800'215e     0x2  stm32f4xx_hal_i2c.o [1]
  .text              ro code   0x800'2160     0x2  stm32f4xx_hal_i2c.o [1]
  .text              ro code   0x800'2162     0x2  stm32f4xx_hal_i2c.o [1]
  .text              ro code   0x800'2164     0x2  stm32f4xx_hal_i2c.o [1]
  .text              ro code   0x800'2166     0x2  stm32f4xx_hal_i2c.o [1]
  .text              ro code   0x800'2168     0x2  stm32f4xx_hal_i2c.o [1]
  .text              ro code   0x800'216a    0x2e  copy_init3.o [4]
  .text              ro code   0x800'2198   0x3f4  stm32f4xx_hal_dma.o [1]
  .text              ro code   0x800'258c     0x2  stm32f4xx_hal_i2c.o [1]
  .text              ro code   0x800'258e     0x2  stm32f4xx_hal_i2c.o [1]
  .text              ro code   0x800'2590     0x2  stm32f4xx_hal_i2c.o [1]
  .text              ro code   0x800'2594    0x4c  stm32f4xx_hal.o [1]
  .text              ro code   0x800'25e0   0x230  I64DivMod.o [4]
  .text              ro code   0x800'2810   0x158  stm32f4xx_hal_cortex.o [1]
  .text              ro code   0x800'2968     0x2  I64DivZer.o [4]
  .text              ro code   0x800'296c  0x149c  dlmalloc.o [2]
  .text              ro code   0x800'3e08     0x6  abort.o [2]
  .text              ro code   0x800'3e10    0x2c  xgetmemchunk.o [2]
  .text              ro code   0x800'3e3c    0x14  exit.o [5]
  .text              ro code   0x800'3e50   0x7de  stm32f4xx_hal_can.o [1]
  .text              ro code   0x800'462e     0x2  stm32f4xx_hal_can.o [1]
  .text              ro code   0x800'4630     0x2  stm32f4xx_hal_can.o [1]
  .text              ro code   0x800'4632     0x2  stm32f4xx_hal_can.o [1]
  .text              ro code   0x800'4634     0x2  stm32f4xx_hal_can.o [1]
  .text              ro code   0x800'4636     0x2  stm32f4xx_hal_can.o [1]
  .text              ro code   0x800'4638     0x2  stm32f4xx_hal_can.o [1]
  .text              ro code   0x800'463a     0x2  stm32f4xx_hal_can.o [1]
  .text              ro code   0x800'463c    0x5c  re_can_int_callback.o [1]
  .text              ro code   0x800'4698     0x2  stm32f4xx_hal_can.o [1]
  .text              ro code   0x800'469a     0x2  stm32f4xx_hal_can.o [1]
  .text              ro code   0x800'469c     0x2  stm32f4xx_hal_can.o [1]
  .text              ro code   0x800'469e     0x2  stm32f4xx_hal_can.o [1]
  .text              ro code   0x800'46a0     0x2  re_std_def.o [1]
  .text              ro code   0x800'46a4    0xa6  ABImemcpy.o [4]
  .text              ro code   0x800'474c   0x6d2  stm32f4xx_hal_adc.o [1]
  .text              ro code   0x800'4e20    0x8c  re_adc_int_callback.o [1]
  .text              ro code   0x800'4eac     0x2  stm32f4xx_hal_adc_ex.o [1]
  .text              ro code   0x800'4eae     0x2  stm32f4xx_hal_adc.o [1]
  .text              ro code   0x800'4eb0     0x2  stm32f4xx_hal_adc.o [1]
  .text              ro code   0x800'4eb4    0x1a  U32ToDbl.o [3]
  .text              ro code   0x800'4ed0    0x12  math_wrappers64.o [3]
  .text              ro code   0x800'4ee4   0x1a2  DblMul.o [3]
  .text              ro code   0x800'5088   0x17a  DblAdd.o [3]
  .text              ro code   0x800'5204    0x3a  DblToS32.o [3]
  .text              ro code   0x800'5240   0x31c  logx64.o [3]
  .text              ro code   0x800'555c    0xe2  DblSub.o [3]
  .text              ro code   0x800'5640    0x70  frexp.o [3]
  .text              ro code   0x800'56b0    0x2e  DblCmpLe.o [3]
  .text              ro code   0x800'56e0   0x246  DblDiv.o [3]
  .text              ro code   0x800'5928    0x22  S32ToDbl.o [3]
  .text              ro code   0x800'594c   0x422  stm32f4xx_hal_tim.o [1]
  .text              ro code   0x800'5d70    0xa8  re_timer_init.o [1]
  .text              ro code   0x800'5e18     0x2  stm32f4xx_hal_tim.o [1]
  .text              ro code   0x800'5e1a     0x2  stm32f4xx_hal_tim.o [1]
  .text              ro code   0x800'5e1c     0x2  stm32f4xx_hal_tim.o [1]
  .text              ro code   0x800'5e20    0x28  re_timer_int_callback.o [1]
  .text              ro code   0x800'5e48     0x2  stm32f4xx_hal_tim_ex.o [1]
  .text              ro code   0x800'5e4a     0x2  stm32f4xx_hal_tim.o [1]
  .text              ro code   0x800'5e4c     0x2  stm32f4xx_hal_tim_ex.o [1]
  .text              ro code   0x800'5e50    0xac  stm32f4xx_hal_tim_ex.o [1]
  .text              ro code   0x800'5efc   0x29c  stm32f4xx_hal_gpio.o [1]
  .text              ro code   0x800'6198   0x3d8  stm32f4xx_hal_rcc.o [1]
  .text              ro code   0x800'6570   0x35e  re_app_soc.o [1]
  .text              ro code   0x800'68ce     0x4  heaptramp0.o [2]
  .text              ro code   0x800'68d4   0x1e4  re_app_can.o [1]
  .text              ro code   0x800'6ab8    0x28  stm32f4xx_hal.o [1]
  .text              ro code   0x800'6ae0    0x2c  re_app_temperature.o [1]
  .text              ro code   0x800'6b0c    0x66  ABImemset.o [4]
  .text              ro code   0x800'6b74   0x188  re_can_init.o [1]
  .text              ro code   0x800'6cfc    0x14  memset.o [4]
  .text              ro code   0x800'6d10   0x170  re_adc_init.o [1]
  .text              ro code   0x800'6e80   0x16c  re_app_eeprom.o [1]
  .text              ro code   0x800'6fec   0x160  stm32f4xx_hal_rcc_ex.o [1]
  .text              ro code   0x800'714c    0xf8  re_i2c_init.o [1]
  .text              ro code   0x800'7244    0xe8  re_sys_clk_config.o [1]
  .text              ro code   0x800'732c    0x90  main.o [1]
  .text              ro code   0x800'73bc    0x34  stm32f4xx_hal.o [1]
  .text              ro code   0x800'73f0    0x78  re_rcps_init.o [1]
  .text              ro code   0x800'7468    0x34  re_dma_init.o [1]
  .text              ro code   0x800'749c    0x90  re_latch_init.o [1]
  .text              ro code   0x800'752c    0x44  re_location_init.o [1]
  .text              ro code   0x800'7570    0x34  re_iwdg_init.o [1]
  .text              ro code   0x800'75a4    0x20  re_app_timers.o [1]
  .text              ro code   0x800'75c4     0x2  stm32f4xx_hal_msp_template.o [1]
  .text              ro code   0x800'75c6    0x5e  stm32f4xx_hal_iwdg.o [1]
  .text              ro code   0x800'7624    0x7c  stm32f4xx_it.o [1]
  .text              ro code   0x800'76a0    0x18  stm32f4xx_hal.o [1]
  .rodata            const     0x800'76b8    0x74  re_app_temperature.o [1]
  .rodata            const     0x800'772c    0x6c  re_app_eeprom.o [1]
  .rodata            const     0x800'7798    0x6c  re_app_soc.o [1]
  .rodata            const     0x800'7804    0x6c  re_app_timers.o [1]
  .rodata            const     0x800'7870    0x6c  re_sys_clk_config.o [1]
  .rodata            const     0x800'78dc    0x68  re_adc_int_callback.o [1]
  .rodata            const     0x800'7944    0x68  re_can_int_callback.o [1]
  .rodata            const     0x800'79ac    0x64  re_app_can.o [1]
  .rodata            const     0x800'7a10    0x64  re_timer_init.o [1]
  .rodata            const     0x800'7a74    0x60  main.o [1]
  .rodata            const     0x800'7ad4    0x60  re_adc_init.o [1]
  .rodata            const     0x800'7b34    0x60  re_can_init.o [1]
  .rodata            const     0x800'7b94    0x60  re_i2c_init.o [1]
  .rodata            const     0x800'7bf4    0x60  re_iwdg_init.o [1]
  .text              ro code   0x800'7c54    0x28  data_init.o [4]
  .text              ro code   0x800'7c7c    0x22  fpinit_M.o [3]
  .iar.init_table    const     0x800'7ca0    0x24  - Linker created -
  .text              ro code   0x800'7cc4    0x1e  cmain.o [4]
  .text              ro code   0x800'7ce2     0x4  low_level_init.o [2]
  .text              ro code   0x800'7ce6     0x4  exit.o [2]
  .text              ro code   0x800'7cec     0xa  cexit.o [4]
  .text              ro code   0x800'7cf8    0x1c  system_stm32f4xx.o [1]
  .rodata            const     0x800'7d14    0x10  system_stm32f4xx.o [1]
  .text              ro code   0x800'7d24    0x10  startup_stm32f407xx.o [1]
  .text              ro code   0x800'7d34     0xc  cstartup_M.o [4]
  Initializer bytes  const     0x800'7d40     0xc  <for P2-1>
  .rodata            const     0x800'7d4c     0x8  stm32f4xx_hal_dma.o [1]
  .rodata            const     0x800'7d54     0x8  system_stm32f4xx.o [1]
  .text              ro code   0x800'7d5c     0x4  startup_stm32f407xx.o [1]
  .text              ro code   0x800'7d60     0x4  startup_stm32f407xx.o [1]
  .text              ro code   0x800'7d64     0x4  startup_stm32f407xx.o [1]
  .text              ro code   0x800'7d68     0x4  startup_stm32f407xx.o [1]
  .text              ro code   0x800'7d6c     0x4  startup_stm32f407xx.o [1]
  .text              ro code   0x800'7d70     0x4  startup_stm32f407xx.o [1]
  .text              ro code   0x800'7d74     0x4  startup_stm32f407xx.o [1]
  .text              ro code   0x800'7d78     0x4  startup_stm32f407xx.o [1]
  .text              ro code   0x800'7d7c     0x4  startup_stm32f407xx.o [1]
  .text              ro code   0x800'7d80     0x4  startup_stm32f407xx.o [1]
  .text              ro code   0x800'7d84     0x4  startup_stm32f407xx.o [1]
  .text              ro code   0x800'7d88     0x4  startup_stm32f407xx.o [1]
  .text              ro code   0x800'7d8c     0x4  startup_stm32f407xx.o [1]
  .text              ro code   0x800'7d90     0x4  startup_stm32f407xx.o [1]
  .text              ro code   0x800'7d94     0x4  startup_stm32f407xx.o [1]
  .text              ro code   0x800'7d98     0x4  startup_stm32f407xx.o [1]
  .text              ro code   0x800'7d9c     0x4  startup_stm32f407xx.o [1]
  .text              ro code   0x800'7da0     0x4  startup_stm32f407xx.o [1]
  .text              ro code   0x800'7da4     0x4  startup_stm32f407xx.o [1]
  .text              ro code   0x800'7da8     0x4  startup_stm32f407xx.o [1]
  .text              ro code   0x800'7dac     0x4  startup_stm32f407xx.o [1]
  .text              ro code   0x800'7db0     0x4  startup_stm32f407xx.o [1]
  .text              ro code   0x800'7db4     0x4  startup_stm32f407xx.o [1]
  .text              ro code   0x800'7db8     0x4  startup_stm32f407xx.o [1]
  .text              ro code   0x800'7dbc     0x4  startup_stm32f407xx.o [1]
  .text              ro code   0x800'7dc0     0x4  startup_stm32f407xx.o [1]
  .text              ro code   0x800'7dc4     0x4  startup_stm32f407xx.o [1]
  .text              ro code   0x800'7dc8     0x4  startup_stm32f407xx.o [1]
  .text              ro code   0x800'7dcc     0x4  startup_stm32f407xx.o [1]
  .text              ro code   0x800'7dd0     0x4  startup_stm32f407xx.o [1]
  .text              ro code   0x800'7dd4     0x4  startup_stm32f407xx.o [1]
  .text              ro code   0x800'7dd8     0x4  startup_stm32f407xx.o [1]
  .text              ro code   0x800'7ddc     0x4  startup_stm32f407xx.o [1]
  .text              ro code   0x800'7de0     0x4  startup_stm32f407xx.o [1]
  .text              ro code   0x800'7de4     0x4  startup_stm32f407xx.o [1]
  .text              ro code   0x800'7de8     0x4  startup_stm32f407xx.o [1]
  .text              ro code   0x800'7dec     0x4  startup_stm32f407xx.o [1]
  .text              ro code   0x800'7df0     0x4  startup_stm32f407xx.o [1]
  .text              ro code   0x800'7df4     0x4  startup_stm32f407xx.o [1]
  .text              ro code   0x800'7df8     0x4  startup_stm32f407xx.o [1]
  .text              ro code   0x800'7dfc     0x4  startup_stm32f407xx.o [1]
  .text              ro code   0x800'7e00     0x4  startup_stm32f407xx.o [1]
  .text              ro code   0x800'7e04     0x4  startup_stm32f407xx.o [1]
  .text              ro code   0x800'7e08     0x4  startup_stm32f407xx.o [1]
  .text              ro code   0x800'7e0c     0x4  startup_stm32f407xx.o [1]
  .text              ro code   0x800'7e10     0x4  startup_stm32f407xx.o [1]
  .text              ro code   0x800'7e14     0x4  startup_stm32f407xx.o [1]
  .text              ro code   0x800'7e18     0x4  startup_stm32f407xx.o [1]
  .text              ro code   0x800'7e1c     0x4  startup_stm32f407xx.o [1]
  .text              ro code   0x800'7e20     0x4  startup_stm32f407xx.o [1]
  .text              ro code   0x800'7e24     0x4  startup_stm32f407xx.o [1]
  .text              ro code   0x800'7e28     0x4  startup_stm32f407xx.o [1]
  .text              ro code   0x800'7e2c     0x4  startup_stm32f407xx.o [1]
  .text              ro code   0x800'7e30     0x4  startup_stm32f407xx.o [1]
  .text              ro code   0x800'7e34     0x4  startup_stm32f407xx.o [1]
  .text              ro code   0x800'7e38     0x4  startup_stm32f407xx.o [1]
  .text              ro code   0x800'7e3c     0x4  startup_stm32f407xx.o [1]
  .text              ro code   0x800'7e40     0x4  startup_stm32f407xx.o [1]
  .text              ro code   0x800'7e44     0x4  startup_stm32f407xx.o [1]
  .text              ro code   0x800'7e48     0x4  startup_stm32f407xx.o [1]
  .text              ro code   0x800'7e4c     0x4  startup_stm32f407xx.o [1]
  .text              ro code   0x800'7e50     0x4  startup_stm32f407xx.o [1]
  .text              ro code   0x800'7e54     0x4  startup_stm32f407xx.o [1]
  .text              ro code   0x800'7e58     0x4  startup_stm32f407xx.o [1]
  .text              ro code   0x800'7e5c     0x4  startup_stm32f407xx.o [1]
  .text              ro code   0x800'7e60     0x4  startup_stm32f407xx.o [1]
  .text              ro code   0x800'7e64     0x4  startup_stm32f407xx.o [1]
  .text              ro code   0x800'7e68     0x4  startup_stm32f407xx.o [1]
  .text              ro code   0x800'7e6c     0x4  startup_stm32f407xx.o [1]
  .text              ro code   0x800'7e70     0x4  startup_stm32f407xx.o [1]
  .text              ro code   0x800'7e74     0x4  startup_stm32f407xx.o [1]
  .text              ro code   0x800'7e78     0x4  startup_stm32f407xx.o [1]
  .text              ro code   0x800'7e7c     0x4  startup_stm32f407xx.o [1]
  .rodata            const     0x800'7e80     0x0  zero_init3.o [4]
  .rodata            const     0x800'7e80     0x0  copy_init3.o [4]
                             - 0x800'7e80  0x7cf8

"P2", part 1 of 3:                            0xc
  P2-1                        0x2000'0000     0x9  <Init block>
    .data            inited   0x2000'0000     0x4  stm32f4xx_hal.o [1]
    .data            inited   0x2000'0004     0x4  system_stm32f4xx.o [1]
    .data            inited   0x2000'0008     0x1  stm32f4xx_hal.o [1]
                            - 0x2000'0009     0x9

"P2", part 2 of 3:                          0x448
  .bss               zero     0x2000'000c   0x1d8  dlmalloc.o [2]
  .bss               zero     0x2000'01e4    0x60  re_dma_init.o [1]
  .bss               zero     0x2000'0244    0x54  re_i2c_init.o [1]
  .bss               zero     0x2000'0298    0x48  re_adc_init.o [1]
  .bss               zero     0x2000'02e0    0x40  re_timer_init.o [1]
  .bss               zero     0x2000'0320    0x2c  re_app_soc.o [1]
  .bss               zero     0x2000'034c    0x2c  re_app_soc.o [1]
  .bss               zero     0x2000'0378    0x28  re_can_init.o [1]
  .bss               zero     0x2000'03a0    0x1c  re_can_init.o [1]
  .bss               zero     0x2000'03bc    0x18  re_app_eeprom.o [1]
  .bss               zero     0x2000'03d4    0x18  re_app_eeprom.o [1]
  .bss               zero     0x2000'03ec    0x18  re_can_init.o [1]
  .bss               zero     0x2000'0404    0x18  dlmalloc.o [2]
  .bss               zero     0x2000'041c     0xc  re_iwdg_init.o [1]
  .bss               zero     0x2000'0428     0x8  re_can_int_callback.o [1]
  .bss               zero     0x2000'0430     0x4  main.o [1]
  .bss               zero     0x2000'0434     0x4  re_app_eeprom.o [1]
  .bss               zero     0x2000'0438     0x4  re_app_eeprom.o [1]
  .bss               zero     0x2000'043c     0x4  re_app_soc.o [1]
  .bss               zero     0x2000'0440     0x4  re_app_temperature.o [1]
  .bss               zero     0x2000'0444     0x4  stm32f4xx_hal.o [1]
  .bss               zero     0x2000'0448     0x4  xgetmemchunk.o [2]
  .bss               zero     0x2000'044c     0x2  re_app_soc.o [1]
  .bss               zero     0x2000'044e     0x1  re_app_temperature.o [1]
  .bss               zero     0x2000'044f     0x1  re_can_int_callback.o [1]
  .bss               zero     0x2000'0450     0x1  re_timer_int_callback.o [1]
                            - 0x2000'0451   0x445

"P2", part 3 of 3:                          0x600
  CSTACK                      0x2000'0458   0x400  <Block>
    CSTACK           uninit   0x2000'0458   0x400  <Block tail>
  HEAP                        0x2000'0858   0x200  <Block>
    HEAP             uninit   0x2000'0858   0x200  <Block tail>
                            - 0x2000'0a58   0x600

Unused ranges:

         From           To      Size
         ----           --      ----
   0x800'7e80   0x80f'ffff  0xf'8180
  0x2000'0454  0x2000'0457       0x4
  0x2000'0a58  0x2001'ffff  0x1'f5a8


*******************************************************************************
*** INIT TABLE
***

          Address      Size
          -------      ----
Zero (__iar_zero_init3)
    1 destination range, total size 0x445:
          0x2000'000c  0x445

Copy (__iar_copy_init3)
    1 source range, total size 0xc (133% of destination):
           0x800'7d40    0xc
    1 destination range, total size 0x9:
          0x2000'0000    0x9



*******************************************************************************
*** MODULE SUMMARY
***

    Module                        ro code  ro data  rw data
    ------                        -------  -------  -------
command line/config:
    -------------------------------------------------------
    Total:

E:\RACEnergy\BitBucket_Codes\Heimdal\surya_merugu-heimdal-d1214973f563\Toolchain\EWARM\Bat_Pack_Gen1\Obj: [1]
    main.o                            144       96        4
    re_adc_init.o                     368       96       72
    re_adc_int_callback.o             140      104
    re_app_can.o                      484      100
    re_app_eeprom.o                   364      108       56
    re_app_soc.o                      862      108       94
    re_app_temperature.o               44      116        5
    re_app_timers.o                    32      108
    re_can_init.o                     392       96       92
    re_can_int_callback.o              92      104        9
    re_dma_init.o                      52                96
    re_i2c_init.o                     248       96       84
    re_iwdg_init.o                     52       96       12
    re_latch_init.o                   144
    re_location_init.o                 68
    re_rcps_init.o                    120
    re_std_def.o                        2
    re_sys_clk_config.o               232      108
    re_timer_init.o                   168      100       64
    re_timer_int_callback.o            40                 1
    startup_stm32f407xx.o             700
    stm32f4xx_hal.o                   204        5        9
    stm32f4xx_hal_adc.o             1'750
    stm32f4xx_hal_adc_ex.o              2
    stm32f4xx_hal_can.o             2'036
    stm32f4xx_hal_cortex.o            344
    stm32f4xx_hal_dma.o             1'012        8
    stm32f4xx_hal_gpio.o              668
    stm32f4xx_hal_i2c.o             7'566
    stm32f4xx_hal_iwdg.o               94
    stm32f4xx_hal_msp_template.o        2
    stm32f4xx_hal_rcc.o             1'516
    stm32f4xx_hal_rcc_ex.o            352
    stm32f4xx_hal_tim.o             1'066
    stm32f4xx_hal_tim_ex.o            176
    stm32f4xx_it.o                    124
    system_stm32f4xx.o                 28       28        4
    -------------------------------------------------------
    Total:                         21'688    1'477      602

dl7M_tlf.a: [2]
    abort.o                             6
    dlmalloc.o                      5'276               496
    exit.o                              4
    heaptramp0.o                        4
    low_level_init.o                    4
    xgetmemchunk.o                     44                 4
    -------------------------------------------------------
    Total:                          5'338               500

m7M_tls.a: [3]
    DblAdd.o                          378
    DblCmpLe.o                         46
    DblDiv.o                          582
    DblMul.o                          418
    DblSub.o                          226
    DblToS32.o                         58
    S32ToDbl.o                         34
    U32ToDbl.o                         26
    fpinit_M.o                         34
    frexp.o                           112
    logx64.o                          796
    math_wrappers64.o                  18
    -------------------------------------------------------
    Total:                          2'728

rt7M_tl.a: [4]
    ABImemcpy.o                       166
    ABImemset.o                       102
    I64DivMod.o                       560
    I64DivZer.o                         2
    cexit.o                            10
    cmain.o                            30
    copy_init3.o                       46
    cstartup_M.o                       12
    data_init.o                        40
    memset.o                           20
    zero_init3.o                       58
    -------------------------------------------------------
    Total:                          1'046

shb_l.a: [5]
    exit.o                             20
    -------------------------------------------------------
    Total:                             20

    Gaps                               46        2
    Linker created                              39    1'536
-----------------------------------------------------------
    Grand Total:                   30'866    1'518    2'638


*******************************************************************************
*** ENTRY LIST
***

Entry                       Address   Size  Type      Object
-----                       -------   ----  ----      ------
.iar.init_table$$Base    0x800'7ca0          --   Gb  - Linker created -
.iar.init_table$$Limit   0x800'7cc4          --   Gb  - Linker created -
?main                    0x800'7cc5         Code  Gb  cmain.o [4]
ADC_IRQHandler           0x800'7647    0xa  Code  Gb  stm32f4xx_it.o [1]
ADC_Init                 0x800'4c97  0x15a  Code  Lc  stm32f4xx_hal_adc.o [1]
AHBPrescTable            0x800'7d14   0x10  Data  Gb  system_stm32f4xx.o [1]
APBPrescTable            0x800'7d54    0x8  Data  Gb  system_stm32f4xx.o [1]
Block                   0x2000'044c    0x2  Data  Gb  re_app_soc.o [1]
BusFault_Handler         0x800'762b    0x2  Code  Gb  stm32f4xx_it.o [1]
CAN1_RX0_IRQHandler      0x800'7665    0xa  Code  Gb  stm32f4xx_it.o [1]
CAN1_RX1_IRQHandler      0x800'766f    0xa  Code  Gb  stm32f4xx_it.o [1]
CAN1_SCE_IRQHandler      0x800'7679    0xa  Code  Gb  stm32f4xx_it.o [1]
CAN1_TX_IRQHandler       0x800'765b    0xa  Code  Gb  stm32f4xx_it.o [1]
CAN_Id                  0x2000'0438    0x4  Data  Gb  re_app_eeprom.o [1]
CSTACK$$Base            0x2000'0458          --   Gb  - Linker created -
CSTACK$$Limit           0x2000'0858          --   Gb  - Linker created -
DMA2_Stream0_IRQHandler
                         0x800'763d    0xa  Code  Gb  stm32f4xx_it.o [1]
DMA_CalcBaseAndBitshift
                         0x800'24b1   0x30  Code  Lc  stm32f4xx_hal_dma.o [1]
DMA_CalcBaseAndBitshift::flagBitshiftOffset
                         0x800'7d4c    0x8  Data  Lc  stm32f4xx_hal_dma.o [1]
DMA_CheckFifoParam       0x800'24f1   0x9c  Code  Lc  stm32f4xx_hal_dma.o [1]
DebugMon_Handler         0x800'7631    0x2  Code  Gb  stm32f4xx_it.o [1]
HAL_ADCEx_InjectedConvCpltCallback
                         0x800'4ead    0x2  Code  Wk  stm32f4xx_hal_adc_ex.o [1]
HAL_ADC_ConfigChannel    0x800'4b1b  0x17c  Code  Gb  stm32f4xx_hal_adc.o [1]
HAL_ADC_ConvCpltCallback
                         0x800'4e21   0x8c  Code  Gb  re_adc_int_callback.o [1]
HAL_ADC_GetValue         0x800'4b15    0x6  Code  Gb  stm32f4xx_hal_adc.o [1]
HAL_ADC_IRQHandler       0x800'492f  0x1e6  Code  Gb  stm32f4xx_hal_adc.o [1]
HAL_ADC_Init             0x800'474d   0x66  Code  Gb  stm32f4xx_hal_adc.o [1]
HAL_ADC_Start_IT         0x800'47b3  0x130  Code  Gb  stm32f4xx_hal_adc.o [1]
HAL_ADC_Stop_IT          0x800'48e3   0x4c  Code  Gb  stm32f4xx_hal_adc.o [1]
HAL_CAN_ActivateNotification
                         0x800'43d5   0x34  Code  Gb  stm32f4xx_hal_can.o [1]
HAL_CAN_AddTxMessage     0x800'4145  0x138  Code  Gb  stm32f4xx_hal_can.o [1]
HAL_CAN_ConfigFilter     0x800'3fbd  0x128  Code  Gb  stm32f4xx_hal_can.o [1]
HAL_CAN_ErrorCallback    0x800'4695    0x4  Code  Gb  re_can_int_callback.o [1]
HAL_CAN_GetRxMessage     0x800'427d  0x158  Code  Gb  stm32f4xx_hal_can.o [1]
HAL_CAN_IRQHandler       0x800'4409  0x224  Code  Gb  stm32f4xx_hal_can.o [1]
HAL_CAN_Init             0x800'3e51  0x16c  Code  Gb  stm32f4xx_hal_can.o [1]
HAL_CAN_RxFifo0MsgPendingCallback
                         0x800'463d   0x42  Code  Gb  re_can_int_callback.o [1]
HAL_CAN_Start            0x800'40e5   0x5c  Code  Gb  stm32f4xx_hal_can.o [1]
HAL_DMA_Abort_IT         0x800'227b   0x28  Code  Gb  stm32f4xx_hal_dma.o [1]
HAL_DMA_GetState         0x800'24ab    0x6  Code  Gb  stm32f4xx_hal_dma.o [1]
HAL_DMA_IRQHandler       0x800'22a3  0x208  Code  Gb  stm32f4xx_hal_dma.o [1]
HAL_DMA_Init             0x800'2199   0xe2  Code  Gb  stm32f4xx_hal_dma.o [1]
HAL_Delay                0x800'6ab9   0x28  Code  Wk  stm32f4xx_hal.o [1]
HAL_GPIO_Init            0x800'5efd  0x212  Code  Gb  stm32f4xx_hal_gpio.o [1]
HAL_GPIO_ReadPin         0x800'610f   0x16  Code  Gb  stm32f4xx_hal_gpio.o [1]
HAL_GPIO_TogglePin       0x800'613f   0x22  Code  Gb  stm32f4xx_hal_gpio.o [1]
HAL_GPIO_WritePin        0x800'6125   0x1a  Code  Gb  stm32f4xx_hal_gpio.o [1]
HAL_GetTick              0x800'2151    0xc  Code  Wk  stm32f4xx_hal.o [1]
HAL_I2C_EV_IRQHandler    0x800'0aed  0x1ae  Code  Gb  stm32f4xx_hal_i2c.o [1]
HAL_I2C_Init             0x800'0189  0x1d2  Code  Gb  stm32f4xx_hal_i2c.o [1]
HAL_I2C_Master_Receive   0x800'04c5  0x2f8  Code  Gb  stm32f4xx_hal_i2c.o [1]
HAL_I2C_Master_Transmit
                         0x800'035b  0x16a  Code  Gb  stm32f4xx_hal_i2c.o [1]
HAL_I2C_Mem_Read         0x800'07e1  0x300  Code  Gb  stm32f4xx_hal_i2c.o [1]
HAL_IWDG_Init            0x800'75c7   0x50  Code  Gb  stm32f4xx_hal_iwdg.o [1]
HAL_IWDG_Refresh         0x800'7617    0xe  Code  Gb  stm32f4xx_hal_iwdg.o [1]
HAL_IncTick              0x800'76a1   0x18  Code  Wk  stm32f4xx_hal.o [1]
HAL_Init                 0x800'73bd   0x30  Code  Gb  stm32f4xx_hal.o [1]
HAL_InitTick             0x800'2595   0x4c  Code  Wk  stm32f4xx_hal.o [1]
HAL_MspInit              0x800'75c5    0x2  Code  Gb  stm32f4xx_hal_msp_template.o [1]
HAL_NVIC_EnableIRQ       0x800'292f    0xe  Code  Gb  stm32f4xx_hal_cortex.o [1]
HAL_NVIC_SetPriority     0x800'2905   0x2a  Code  Gb  stm32f4xx_hal_cortex.o [1]
HAL_NVIC_SetPriorityGrouping
                         0x800'28f9    0xc  Code  Gb  stm32f4xx_hal_cortex.o [1]
HAL_RCCEx_PeriphCLKConfig
                         0x800'6fed  0x13a  Code  Gb  stm32f4xx_hal_rcc_ex.o [1]
HAL_RCC_ClockConfig      0x800'1f3d  0x140  Code  Gb  stm32f4xx_hal_rcc.o [1]
HAL_RCC_GetHCLKFreq      0x800'207d    0x6  Code  Gb  stm32f4xx_hal_rcc.o [1]
HAL_RCC_GetPCLK1Freq     0x800'2083   0x16  Code  Gb  stm32f4xx_hal_rcc.o [1]
HAL_RCC_OscConfig        0x800'6199  0x3d8  Code  Wk  stm32f4xx_hal_rcc.o [1]
HAL_SYSTICK_Config       0x800'293d    0xc  Code  Gb  stm32f4xx_hal_cortex.o [1]
HAL_TIMEx_BreakCallback
                         0x800'5e49    0x2  Code  Wk  stm32f4xx_hal_tim_ex.o [1]
HAL_TIMEx_CommutCallback
                         0x800'5e4d    0x2  Code  Wk  stm32f4xx_hal_tim_ex.o [1]
HAL_TIMEx_MasterConfigSynchronization
                         0x800'5e51   0x8e  Code  Gb  stm32f4xx_hal_tim_ex.o [1]
HAL_TIM_Base_Init        0x800'594d   0x38  Code  Gb  stm32f4xx_hal_tim.o [1]
HAL_TIM_Base_MspInit     0x800'5d71   0x36  Code  Gb  re_timer_init.o [1]
HAL_TIM_Base_Start_IT    0x800'5985   0x2a  Code  Gb  stm32f4xx_hal_tim.o [1]
HAL_TIM_ConfigClockSource
                         0x800'5b25   0xec  Code  Gb  stm32f4xx_hal_tim.o [1]
HAL_TIM_IRQHandler       0x800'59af  0x176  Code  Gb  stm32f4xx_hal_tim.o [1]
HAL_TIM_PeriodElapsedCallback
                         0x800'5e21   0x28  Code  Gb  re_timer_int_callback.o [1]
HEAP$$Base              0x2000'0858          --   Gb  - Linker created -
HEAP$$Limit             0x2000'0a58          --   Gb  - Linker created -
HardFault_Handler        0x800'7627    0x2  Code  Gb  stm32f4xx_it.o [1]
I2C1_EV_IRQHandler       0x800'7683    0xa  Code  Gb  stm32f4xx_it.o [1]
I2C_ConvertOtherXferOptions
                         0x800'1ee5   0x1c  Code  Lc  stm32f4xx_hal_i2c.o [1]
I2C_DMAAbort             0x800'1b8d   0xba  Code  Lc  stm32f4xx_hal_i2c.o [1]
I2C_ITError              0x800'167b  0x186  Code  Lc  stm32f4xx_hal_i2c.o [1]
I2C_IsAcknowledgeFailed
                         0x800'1ead   0x38  Code  Lc  stm32f4xx_hal_i2c.o [1]
I2C_MasterReceive_BTF    0x800'0f5f  0x128  Code  Lc  stm32f4xx_hal_i2c.o [1]
I2C_MasterReceive_RXNE   0x800'0eb9   0xa6  Code  Lc  stm32f4xx_hal_i2c.o [1]
I2C_MasterRequestRead    0x800'18cd  0x142  Code  Lc  stm32f4xx_hal_i2c.o [1]
I2C_MasterRequestWrite   0x800'1801   0xc6  Code  Lc  stm32f4xx_hal_i2c.o [1]
I2C_MasterTransmit_BTF   0x800'0d83   0xb4  Code  Lc  stm32f4xx_hal_i2c.o [1]
I2C_MasterTransmit_TXE   0x800'0c9b   0xe8  Code  Lc  stm32f4xx_hal_i2c.o [1]
I2C_Master_ADD10         0x800'1139   0x32  Code  Lc  stm32f4xx_hal_i2c.o [1]
I2C_Master_ADDR          0x800'116b  0x246  Code  Lc  stm32f4xx_hal_i2c.o [1]
I2C_Master_SB            0x800'1087   0xb2  Code  Lc  stm32f4xx_hal_i2c.o [1]
I2C_MemoryTransmit_TXE_BTF
                         0x800'0e39   0x80  Code  Lc  stm32f4xx_hal_i2c.o [1]
I2C_RequestMemoryRead    0x800'1a0f  0x170  Code  Lc  stm32f4xx_hal_i2c.o [1]
I2C_SlaveReceive_BTF     0x800'1469   0x1c  Code  Lc  stm32f4xx_hal_i2c.o [1]
I2C_SlaveReceive_RXNE    0x800'141b   0x4e  Code  Lc  stm32f4xx_hal_i2c.o [1]
I2C_SlaveTransmit_BTF    0x800'13ff   0x1c  Code  Lc  stm32f4xx_hal_i2c.o [1]
I2C_SlaveTransmit_TXE    0x800'13b1   0x4e  Code  Lc  stm32f4xx_hal_i2c.o [1]
I2C_Slave_ADDR           0x800'1485   0x5c  Code  Lc  stm32f4xx_hal_i2c.o [1]
I2C_Slave_STOPF          0x800'14e1  0x19a  Code  Lc  stm32f4xx_hal_i2c.o [1]
I2C_StructReceiveBuffer
                        0x2000'03d4   0x18  Data  Gb  re_app_eeprom.o [1]
I2C_WaitOnBTFFlagUntilTimeout
                         0x800'1de3   0x58  Code  Lc  stm32f4xx_hal_i2c.o [1]
I2C_WaitOnFlagUntilTimeout
                         0x800'1c47   0x8a  Code  Lc  stm32f4xx_hal_i2c.o [1]
I2C_WaitOnMasterAddressFlagUntilTimeout
                         0x800'1cd1   0xba  Code  Lc  stm32f4xx_hal_i2c.o [1]
I2C_WaitOnRXNEFlagUntilTimeout
                         0x800'1e3b   0x72  Code  Lc  stm32f4xx_hal_i2c.o [1]
I2C_WaitOnTXEFlagUntilTimeout
                         0x800'1d8b   0x58  Code  Lc  stm32f4xx_hal_i2c.o [1]
MemManage_Handler        0x800'7629    0x2  Code  Gb  stm32f4xx_it.o [1]
NMI_Handler              0x800'7625    0x2  Code  Gb  stm32f4xx_it.o [1]
NVIC_EncodePriority      0x800'2889   0x40  Code  Lc  stm32f4xx_hal_cortex.o [1]
PendSV_Handler           0x800'7633    0x2  Code  Gb  stm32f4xx_it.o [1]
RE_ADC1_Init             0x800'6dcd   0x8e  Code  Gb  re_adc_init.o [1]
RE_ADC_GpioInit          0x800'6d11   0xbc  Code  Lc  re_adc_init.o [1]
RE_Byte_Swap             0x800'6627    0xe  Code  Lc  re_app_soc.o [1]
RE_CAN1_Filter_Config    0x800'6c73   0x42  Code  Gb  re_can_init.o [1]
RE_CAN1_Init             0x800'6c1f   0x54  Code  Gb  re_can_init.o [1]
RE_CAN1_Start_Interrupt
                         0x800'6cb5   0x30  Code  Gb  re_can_init.o [1]
RE_CAN_Convkit_MsgHandler
                         0x800'69b5   0xd6  Code  Gb  re_app_can.o [1]
RE_CAN_GpioInit          0x800'6b75   0xaa  Code  Lc  re_can_init.o [1]
RE_CAN_RespondData       0x800'6923   0x92  Code  Gb  re_app_can.o [1]
RE_DMA_Init              0x800'7469   0x34  Code  Gb  re_dma_init.o [1]
RE_Error_Handler         0x800'46a1    0x2  Code  Gb  re_std_def.o [1]
RE_I2C_GpioInit          0x800'714d   0x7a  Code  Lc  re_i2c_init.o [1]
RE_IWDG_Init             0x800'7571   0x34  Code  Gb  re_iwdg_init.o [1]
RE_Latch_GpioInit        0x800'749d   0x90  Code  Gb  re_latch_init.o [1]
RE_Location_GpioInit     0x800'752d   0x44  Code  Gb  re_location_init.o [1]
RE_NVS_GetCanID          0x800'6f8d   0x46  Code  Gb  re_app_eeprom.o [1]
RE_NVS_ReadSysConfig     0x800'6e81  0x10c  Code  Gb  re_app_eeprom.o [1]
RE_ReadTemperatureSensorData
                         0x800'6ae1   0x2c  Code  Gb  re_app_temperature.o [1]
RE_SEND_Pack_Ids         0x800'68d5   0x4e  Code  Gb  re_app_can.o [1]
RE_SoC_ConfigDataBlock   0x800'6571   0x4c  Code  Lc  re_app_soc.o [1]
RE_SoC_I2CReadDataBlock
                         0x800'65bd   0x6a  Code  Lc  re_app_soc.o [1]
RE_SoC_MapGaugeData      0x800'6635  0x262  Code  Lc  re_app_soc.o [1]
RE_SoC_NVS_Init          0x800'71c7   0x62  Code  Gb  re_i2c_init.o [1]
RE_SoC_ReadGaugeData     0x800'68b1   0x1e  Code  Gb  re_app_soc.o [1]
RE_SystemClock_Config    0x800'7245   0xe8  Code  Gb  re_sys_clk_config.o [1]
RE_TIMER2_Init           0x800'5da7   0x66  Code  Gb  re_timer_init.o [1]
RE_TimerEventHandler     0x800'75a5   0x20  Code  Gb  re_app_timers.o [1]
RE_rcps_GpioInit         0x800'73f1   0x78  Code  Gb  re_rcps_init.o [1]
Region$$Table$$Base      0x800'7ca0          --   Gb  - Linker created -
Region$$Table$$Limit     0x800'7cc4          --   Gb  - Linker created -
RxHeader                0x2000'03a0   0x1c  Data  Gb  re_can_init.o [1]
SVC_Handler              0x800'762f    0x2  Code  Gb  stm32f4xx_it.o [1]
Self_CANID              0x2000'0434    0x4  Data  Gb  re_app_eeprom.o [1]
SysTick_Config           0x800'28c9   0x30  Code  Lc  stm32f4xx_hal_cortex.o [1]
SysTick_Handler          0x800'7635    0x8  Code  Gb  stm32f4xx_it.o [1]
SystemCoreClock         0x2000'0004    0x4  Data  Gb  system_stm32f4xx.o [1]
SystemInit               0x800'7cf9   0x14  Code  Gb  system_stm32f4xx.o [1]
System_Config           0x2000'03bc   0x18  Data  Gb  re_app_eeprom.o [1]
TIM2_IRQHandler          0x800'7651    0xa  Code  Gb  stm32f4xx_it.o [1]
TIM_Base_SetConfig       0x800'5c11   0xc0  Code  Gb  stm32f4xx_hal_tim.o [1]
TIM_ETR_SetConfig        0x800'5d57   0x18  Code  Gb  stm32f4xx_hal_tim.o [1]
TIM_ITRx_SetConfig       0x800'5d47   0x10  Code  Lc  stm32f4xx_hal_tim.o [1]
TIM_TI1_ConfigInputStage
                         0x800'5cfd   0x24  Code  Lc  stm32f4xx_hal_tim.o [1]
TIM_TI2_ConfigInputStage
                         0x800'5d21   0x26  Code  Lc  stm32f4xx_hal_tim.o [1]
Temperature             0x2000'0440    0x4  Data  Gb  re_app_temperature.o [1]
Temperature_Flag        0x2000'044e    0x1  Data  Gb  re_app_temperature.o [1]
TimerFlag               0x2000'0450    0x1  Data  Gb  re_timer_int_callback.o [1]
TxHeader                0x2000'03ec   0x18  Data  Gb  re_can_init.o [1]
UsageFault_Handler       0x800'762d    0x2  Code  Gb  stm32f4xx_it.o [1]
__NVIC_EnableIRQ         0x800'283f   0x1e  Code  Lc  stm32f4xx_hal_cortex.o [1]
__NVIC_GetPriorityGrouping
                         0x800'2833    0xc  Code  Lc  stm32f4xx_hal_cortex.o [1]
__NVIC_SetPriority       0x800'285d   0x2c  Code  Lc  stm32f4xx_hal_cortex.o [1]
__NVIC_SetPriorityGrouping
                         0x800'2811   0x22  Code  Lc  stm32f4xx_hal_cortex.o [1]
__aeabi_cdcmple          0x800'56b1         Code  Gb  DblCmpLe.o [3]
__aeabi_d2iz             0x800'5205         Code  Gb  DblToS32.o [3]
__aeabi_dadd             0x800'5089         Code  Gb  DblAdd.o [3]
__aeabi_ddiv             0x800'56e1         Code  Gb  DblDiv.o [3]
__aeabi_dmul             0x800'4ee5         Code  Gb  DblMul.o [3]
__aeabi_dsub             0x800'555d         Code  Gb  DblSub.o [3]
__aeabi_i2d              0x800'5929         Code  Gb  S32ToDbl.o [3]
__aeabi_ldiv0            0x800'2969         Code  Gb  I64DivZer.o [4]
__aeabi_memcpy           0x800'46a5         Code  Gb  ABImemcpy.o [4]
__aeabi_memcpy4          0x800'46c5         Code  Gb  ABImemcpy.o [4]
__aeabi_memcpy8          0x800'46c5         Code  Gb  ABImemcpy.o [4]
__aeabi_memset           0x800'6b0d         Code  Gb  ABImemset.o [4]
__aeabi_ui2d             0x800'4eb5         Code  Gb  U32ToDbl.o [3]
__aeabi_uldivmod         0x800'25e1         Code  Gb  I64DivMod.o [4]
__cmain                  0x800'7cc5         Code  Gb  cmain.o [4]
__data_GetMemChunk       0x800'3e11   0x2c  Code  Gb  xgetmemchunk.o [2]
__data_GetMemChunk::start
                        0x2000'0448    0x4  Data  Lc  xgetmemchunk.o [2]
__exit                   0x800'3e3d   0x14  Code  Gb  exit.o [5]
__iar_Log64              0x800'5241  0x280  Code  Lc  logx64.o [3]
__iar_Memset             0x800'6b0d         Code  Gb  ABImemset.o [4]
__iar_Memset_word        0x800'6b15         Code  Gb  ABImemset.o [4]
__iar_copy_init3         0x800'216b   0x2e  Code  Gb  copy_init3.o [4]
__iar_dadd               0x800'556d         Code  Gb  DblSub.o [3]
__iar_data_init3         0x800'7c55   0x28  Code  Gb  data_init.o [4]
__iar_dlfree             0x800'38e3  0x51e  Code  Gb  dlmalloc.o [2]
__iar_dlmalloc           0x800'29f5  0xeee  Code  Gb  dlmalloc.o [2]
__iar_dsub               0x800'5099         Code  Gb  DblAdd.o [3]
__iar_dsubStart          0x800'50ab         Code  Gb  DblAdd.o [3]
__iar_frexp              0x800'564d         Code  Gb  frexp.o [3]
__iar_frexpl             0x800'564d         Code  Gb  frexp.o [3]
__iar_init_vfp           0x800'7c7d         Code  Gb  fpinit_M.o [3]
__iar_log64              0x800'5559    0x4  Code  Gb  logx64.o [3]
__iar_log_medium         0x800'5559    0x4  Code  Gb  logx64.o [3]
__iar_log_medium64       0x800'5559    0x4  Code  Gb  logx64.o [3]
__iar_log_mediuml        0x800'5559    0x4  Code  Gb  logx64.o [3]
__iar_program_start      0x800'7d35         Code  Gb  cstartup_M.o [4]
__iar_softfp___iar_frexp64
                         0x800'5641         Code  Gb  frexp.o [3]
__iar_softfp_frexp       0x800'5641         Code  Gb  frexp.o [3]
__iar_softfp_frexpl      0x800'5641         Code  Gb  frexp.o [3]
__iar_vfp_log            0x800'4ed7    0xc  Code  Gb  math_wrappers64.o [3]
__iar_zero_init3         0x800'1f03   0x3a  Code  Gb  zero_init3.o [4]
__low_level_init         0x800'7ce3    0x4  Code  Gb  low_level_init.o [2]
__vector_table           0x800'0000         Data  Gb  startup_stm32f407xx.o [1]
_call_main               0x800'7cd1         Code  Gb  cmain.o [4]
_exit                    0x800'7ced         Code  Gb  cexit.o [4]
_gm_                    0x2000'000c  0x1d8  Data  Lc  dlmalloc.o [2]
_main                    0x800'7cdf         Code  Gb  cmain.o [4]
abort                    0x800'3e09    0x6  Code  Gb  abort.o [2]
can_kit_rcvd_msg        0x2000'0428    0x8  Data  Gb  re_can_int_callback.o [1]
exit                     0x800'7ce7    0x4  Code  Gb  exit.o [2]
free                     0x800'68cf    0x4  Code  Gb  heaptramp0.o [2]
gaugeData               0x2000'034c   0x2c  Data  Gb  re_app_soc.o [1]
gaugeDataPacket         0x2000'0320   0x2c  Data  Gb  re_app_soc.o [1]
hadc1_t                 0x2000'0298   0x48  Data  Gb  re_adc_init.o [1]
hcan1_t                 0x2000'0378   0x28  Data  Gb  re_can_init.o [1]
hdma_adc1_t             0x2000'01e4   0x60  Data  Gb  re_dma_init.o [1]
hi2c1_t                 0x2000'0244   0x54  Data  Gb  re_i2c_init.o [1]
hiwdg_t                 0x2000'041c    0xc  Data  Gb  re_iwdg_init.o [1]
htim2_t                 0x2000'02e0   0x40  Data  Gb  re_timer_init.o [1]
init_mparams             0x800'2987   0x2c  Code  Lc  dlmalloc.o [2]
init_top                 0x800'29b3   0x34  Code  Lc  dlmalloc.o [2]
kit_rx_can_flag         0x2000'044f    0x1  Data  Gb  re_can_int_callback.o [1]
log                      0x800'5559    0x4  Code  Gb  logx64.o [3]
logl                     0x800'5559    0x4  Code  Gb  logx64.o [3]
main                     0x800'732d   0x90  Code  Gb  main.o [1]
memset                   0x800'6cfd   0x14  Code  Gb  memset.o [4]
mparams                 0x2000'0404   0x18  Data  Lc  dlmalloc.o [2]
pGaugeData              0x2000'043c    0x4  Data  Gb  re_app_soc.o [1]
pclk                    0x2000'0430    0x4  Data  Gb  main.o [1]
segment_holding          0x800'296d   0x1a  Code  Lc  dlmalloc.o [2]
uwTick                  0x2000'0444    0x4  Data  Gb  stm32f4xx_hal.o [1]
uwTickFreq              0x2000'0008    0x1  Data  Gb  stm32f4xx_hal.o [1]
uwTickPrio              0x2000'0000    0x4  Data  Gb  stm32f4xx_hal.o [1]


[1] = E:\RACEnergy\BitBucket_Codes\Heimdal\surya_merugu-heimdal-d1214973f563\Toolchain\EWARM\Bat_Pack_Gen1\Obj
[2] = dl7M_tlf.a
[3] = m7M_tls.a
[4] = rt7M_tl.a
[5] = shb_l.a

  30'866 bytes of readonly  code memory
   1'518 bytes of readonly  data memory
   2'638 bytes of readwrite data memory

Errors: none
Warnings: none
